:020000040800F2
:100000007007002091010008550700080D0700083F
:100010005107000849040008770C000800000000A0
:10002000000000000000000000000000E1080008DF
:100030004D04000800000000E9070008A9010008BD
:10004000AB010008AB010008AB010008AB010008E0
:10005000AB010008AB010008AB010008AB010008D0
:10006000AB010008AB010008AB010008AB010008C0
:10007000AB010008AB010008AB010008AB010008B0
:10008000AB010008AB010008AB010008AB010008A0
:10009000AB010008AB010008AB010008AB01000890
:1000A000AB010008AB010008AB010008AB01000880
:1000B000AB010008AB010008AB010008AB01000870
:1000C000AB010008AB010008AB010008AB01000860
:1000D000AB010008550A0008AB010008AB0100089D
:1000E000AB010008AB010008AB01000800F002F80A
:1000F00000F03FF80AA090E8000C82448344AAF183
:100100000107DA4501D100F034F8AFF2090EBAE880
:100110000F0013F0010F18BFFB1A43F0010318473B
:10012000E80F000008100000103A24BF78C878C11A
:10013000FAD8520724BF30C830C144BF04680C60ED
:10014000704700000023002400250026103A28BF35
:1001500078C1FBD8520728BF30C148BF0B60704739
:10016000642900F07780002070471FB51FBD10B5CF
:1001700010BD00F037F91146FFF7F7FF00F0FCFD66
:1001800000F055F903B4FFF7F2FF03BC00F075FD72
:100190000948804709480047FEE7FEE7FEE7FEE71B
:1001A000FEE7FEE7FEE7FEE7FEE7FEE70448054957
:1001B000054A064B70470000F5090008ED000008ED
:1001C00070010020700700207003002070030020E1
:1001D000704700000FB4044910B503AA029800F05C
:1001E000D3F810BC5DF814FB3C0000202DE9F04171
:1001F0000E460446002020622046E168884730B35E
:10020000252805D0D4E901219047206A401CF2E757
:10021000E168204600278847050018D0A5F1410075
:10022000192802D820354FF4006732462946204667
:100230002760FFF795FF40B1012804D0F61D26F096
:1002400007060836D8E7361DD6E72846DAE7206ADB
:10025000BDE8F0812DE9F0410646002410687529BB
:10026000314616A510D0AFF30080002802DA4042D4
:1002700013A507E031688A0701D512A502E04907F6
:1002800004D511A5012401E0AFF3008000210A226A
:1002900006F1240709E0B0FBF2FCB0FBF2F302FB2D
:1002A0001C00303078541846491C0028F3D12346EE
:1002B0002A463046BDE8F04100F00CB800000000CE
:1002C0002D0000002B000000200000007047704748
:1002D000704770472DE9F0470D469946924604460F
:1002E00000F124080168880604D5E06921F01001B6
:1002F000216000E00120A84201DD471B00E000274B
:10030000A1697A1902EB0900081AA0612078C006D9
:1003100002D42046AFF30080002608E0D4E9012192
:100320001AF806009047206A401C761C20624E4551
:10033000F4DB2078C0060AD52046AFF3008006E043
:10034000D4E9012130209047206A401C2062381EE9
:10035000A7F10107F4DC07E0D4E9012118F8050052
:100360009047206A401C2062281EA5F10105F3DC9D
:100370002046AFF300802078000602D50220BDE8B9
:10038000F0870120FBE70000074B70B50D467B446A
:1003900000F011F80446284600F020F810B14FF0A4
:1003A000FF3070BD204670BDCB09000001694A1CBA
:1003B00002610878704700B58FB0CDE901310021A6
:1003C000059105497944CDE9031011466846FFF7C8
:1003D0000DFF0FB000BD0000E5FFFFFF007B00F048
:1003E00080007047754600F02BF8AE460500694660
:1003F000534620F00700854618B020B5FFF7D6FE1B
:10040000BDE820404FF000064FF000074FF0000815
:100410004FF0000B21F00701AC46ACE8C009ACE896
:10042000C009ACE8C009ACE8C0098D46704710B5FA
:100430000446AFF300802046BDE81040FFF7A2BE9F
:10044000004870470C01002000BFFEE77047002104
:1004500009E0002201E0531C9AB242F645039A4299
:10046000F9DB4B1C99B28142F3DB70472DE9F04177
:10047000024600250026002000230024002791F8D2
:1004800003C00CF00F0591F803C00CF0100CBCF188
:10049000000F03D091F802C04CEA050591F800C0A6
:1004A000BCF1000F31D0146800202BE04FF0010C9C
:1004B0000CFA00F3B1F800C00CEA03069E4220D10A
:1004C00083004FF00F0C0CFA03F7BC4305FA03FC52
:1004D0004CEA040491F803C0BCF1280F06D14FF098
:1004E000010C0CFA00FCC2F814C00AE091F803C039
:1004F000BCF1480F05D14FF0010C0CFA00FCC2F81A
:1005000010C0401C0828D1D31460B1F800C0BCF161
:10051000FF0F34DD546800202EE000F1080C4FF08E
:10052000010808FA0CF3B1F800C00CEA03069E4279
:1005300021D183004FF00F0C0CFA03F7BC4305FAEE
:1005400003FC4CEA040491F803C0BCF1280F05D168
:1005500000F1080C08FA0CF8C2F8148091F803C0F6
:10056000BCF1480F07D100F1080C4FF0010808FA60
:100570000CF8C2F81080401C0828CED35460BDE8A7
:10058000F0810000F0B50A46002300240021002578
:1005900000F00046B6F1004F02D11D4EF16901E0B6
:1005A0001B4E7168C0F3034583B200F44016B6F5E4
:1005B000401F08D121F07061154E766826F07066F4
:1005C000134F7E6012E000F48016B6F5801F06D14E
:1005D000032606FA05F4A14341F0706106E0460DDA
:1005E000360103FA06F6B14341F0706122B1460DBF
:1005F000360103FA06F6314300F00046B6F1004F2B
:1006000002D1034EF16101E0014E7160F0BD0000C6
:100610000000014010B500F041F80149086010BD2C
:100620001800002070B500F039F80D490860084640
:1006300000680C490860084600680B490968401AC0
:10064000084908600846006800F0FAFC05460749BA
:1006500000F018FC044600F0D7FC0249086070BDA9
:10066000140000201C000020180000200080ED4332
:1006700008B50121402000F0B9F84FF42060ADF832
:10068000000010208DF8030003208DF80200694659
:100690000148FFF7EBFE08BD0018014070B50020CF
:1006A000184908600024012000F032FB00BF154803
:1006B000843800680028FAD1002513E00120114990
:1006C0000860640000F024FB00200F49C1F8840199
:1006D0000C488438006800B1641C012000F018FB4D
:1006E000681CC5B2182DE9DB01200649086084F4B6
:1006F000000400F00DFB00200349C1F884012046EE
:1007000070BD0000848121420080214200BFFEE7CD
:1007100008B50121082000F069F80220ADF80000BA
:1007200010208DF8030003208DF802006946074869
:10073000FFF79CFE0120ADF8000048208DF8030073
:1007400069460248FFF792FE08BD0000000C014018
:1007500000BFFEE7704710B54FF4A06000F03AF814
:1007600010BD000070B5002100230F22C47804B32F
:10077000154C246804F4E064C4F5E064210AC1F176
:100780000403CA40447804FA03F1847814402143F6
:1007900009010E4C0678A155047804F01F050124C8
:1007A000AC4005786D11AD0005F1E025C5F80041BC
:1007B00009E0047804F01F050124AC40044D0678DC
:1007C000761145F8264070BD0CED00E000E400E035
:1007D00080E100E002490143024A116070470000D5
:1007E0000000FA050CED00E07047000029B1064A50
:1007F00092690243044B9A6104E0034A926982437E
:10080000014B9A61704700000010024030B5002192
:100810000022002400232D4D6D6805F00C0121B14C
:10082000042905D0082923D105E0294D056022E0DF
:10083000274D05601FE0254D6D6805F47012234DAE
:100840006D6805F48034022505EB92421CB9214DF8
:10085000554305600BE01D4D6D6805F400351DB175
:100860001C4D5543056002E0194D5543056002E0FB
:10087000174D056000BF00BF144D6D6805F0F00115
:100880000909154D6B5C0568DD4045600F4D6D68CD
:1008900005F4E061090A104D6B5C4568DD40856038
:1008A0000A4D6D6805F46051C90A0B4D6B5C4568D3
:1008B000DD40C560054D6D6805F44041890B074D6D
:1008C0006B5CC568B5FBF3F5056130BD00100240F7
:1008D00000127A0000093D002100002031000020B4
:1008E000704710B500F002F810BD00000CB50020F4
:1008F000019000903348006840F48030314908602E
:1009000000BF3048006800F4003000900198401C9F
:100910000190009818B90198B0F5A06FF1D129485D
:10092000006800F4003010B10120009001E00020C8
:1009300000900098012843D12348006840F010003F
:10094000214908600846006820F003000860084656
:10095000006840F0020008601A4840681949486081
:100960000846406848600846406840F48060486037
:100970000846406820F47C1048600846406840F40F
:10098000E81048600846006840F08070086000BFCA
:100990000C48006800F000700028F9D00948406851
:1009A00020F00300074948600846406840F0020014
:1009B000486000BF0348406800F00C000828F9D1E7
:1009C0000CBD00000010024000200240042808D1A5
:1009D0004FF0E021096941F004014FF0E02211617C
:1009E00007E04FF0E021096921F004014FF0E02217
:1009F0001161704710B51348006840F001001149BB
:100A0000086008464068104908400E49486008469A
:100A100000680E4908400B4908600846006820F449
:100A2000802008600846406820F4FE0048604FF4CB
:100A30001F008860FFF755FF4FF000600449086011
:100A400010BD0000001002400000FFF8FFFFF6FE9E
:100A500008ED00E010B540F225511D4800F04AF8BD
:100A600010B31B4800F002F9C4B21A48008800F421
:100A70000040C8B91748008800F4804060B10A2CD3
:100A800003D000201349088020E01248008840F479
:100A900000401049088019E00D2C06D10D4800884F
:100AA00040F480400B49088010E00A480088C0F3F9
:100AB0000D0009490C5407480088401C054908806E
:100AC00008460088C72801DD0020088010BD00000E
:100AD00000380140400000204400002021B18289FC
:100AE00042F40052828104E082894DF6FF731A407D
:100AF0008281704770B50246002400230025002043
:100B000040F66A16B14200D100BFC1F3421501F0B0
:100B10001F03012606FA03F3012D02D19689334003
:100B200006E0022D02D1168A334001E0968A334056
:100B30000C12012606FA04F41688344013B10CB1E5
:100B4000012000E0002070BDF0B50346002400261F
:100B50000025002040F66A17B94200D100BF1846B0
:100B6000C1F3421401F01F06012707FA06F5012C14
:100B700001D10C3004E0022C01D1103000E014301F
:100B80001AB107682F43076002E00768AF430760A8
:100B9000F0BD00002DE9F04786B005460E46002462
:100BA000A24600BFA1460027B08900B100BF2F4672
:100BB0002C8A4CF6FF700440F08804432C82AC89E8
:100BC0004EF6F3100440B088318908437189084318
:100BD0000443AC81AC8A4FF6FF400440B089044323
:100BE000AC8201A8FFF712FE1F48874202D1DDF850
:100BF00010A001E0DDF80CA0A88900F4004040B18D
:100C00000AEBCA0000EB0A1031684900B0FBF1F8AA
:100C100007E00AEBCA0000EB0A1031688900B0FB5C
:100C2000F1F86420B8FBF0F004012009642101FB15
:100C30001089A88900F4004040B1322000EBC900BF
:100C4000B0FBF1F000F00700044308E0322000EBB5
:100C500009106421B0FBF1F000F00F0004432C8177
:100C600006B0BDE8F08700000038014001468888E2
:100C7000C0F30800704700BFFEE7014600BF7047A1
:100C800010B56FF00400FFF7A1FE0A4800680A499A
:100C9000B0FBF1F0094908700846007800EB40010C
:100CA000C1EBC0104FF6FF7101EAC0000449088093
:100CB00010BD00000000002000127A003600002065
:100CC000380000200146114A12884A434FF0E023C1
:100CD0005A6100229A611A46126942F001021A61B1
:100CE00000BF4FF0E022106900F001021AB100F4D9
:100CF0008032002AF5D04FF0E022126922F0010282
:100D00004FF0E0231A6100229A61704738000020FA
:100D10000146114A12784A434FF0E0235A610022FB
:100D20009A611A46126942F001021A6100BF4FF03F
:100D3000E022106900F001021AB100F48032002AAA
:100D4000F5D04FF0E022126922F001024FF0E023CB
:100D50001A6100229A6170473600002000BF054AE0
:100D6000128802F04002002AF9D0C2B2014B1B1DCA
:100D70001A80704700380140FFF7CAFCFFF73AFEBF
:100D8000FFF77EFFFFF774FCFFF7E5FC4FF416500A
:100D900000F01EF8FFF73EFC4FF47A70FFF792FF69
:100DA0004FF47A70FFF78EFFFFF734FC0AE0FFF78D
:100DB00039FC4FF49670FFF74AFB0348016803A023
:100DC000FFF708FAF3E700001C00002025640A0082
:100DD00010B586B00446012144F20400FFF706FD79
:100DE00001210820FFF702FD01210846FFF7FEFC64
:100DF00001210420FFF7C6FB18208DF817004020C2
:100E0000ADF8140003208DF8160005A91B48FFF764
:100E10002DFB04208DF817008020ADF8140005A9E3
:100E20001648FFF723FB25208DF8000003208DF8DE
:100E300001008DF8020001208DF803006846FFF7DD
:100E400091FC01940020ADF80800ADF80A00ADF85F
:100E50000C00ADF810000C20ADF80E0001A90848F8
:100E6000FFF798FE012240F225510548FFF76CFE7E
:100E700001210348FFF732FE06B010BD000C01400F
:100E8000003801404FF47F0C1CEAD0121EBF1CEA50
:100E9000D11392EA0C0F93EA0C0F00F0858090EAD0
:100EA000010F48BF42F4807240F4000C41F400008E
:100EB0002CF07F4120F07F4000B58142A2EB03027D
:100EC0000FF2081CACEB504EC0F100009EF800E0A1
:100ED0004FEA4E0E00FB0EFC38BF49004FEA2C1CB7
:100EE00002F5FA020CFB0EF34FEACE1E4FEA112C6C
:100EF0004FEAC1210EEB635E42EB22420EFB0CFC7B
:100F00004FEA1C5300FB03114FEA112C4FEA013149
:100F10000EFB0CFC4FEADC4C00FB0C11C14228BF5D
:100F200009184CEB03335DF804EB10EB410143EB84
:100F3000C250B2F57C0F38BF704729D512F0F00FC0
:100F40001CBF00F1C04000F0004070470081828368
:100F50008485868788898B8C8D8E8F9192939596C8
:100F600097999A9C9D9FA0A2A3A5A7A8AAACAEB052
:100F7000B2B3B5B7B9BCBEC0C2C5C7C9CCCED1D457
:100F8000D7D9DCDFE2E6E9ECF0F3F7FAFE00000087
:100F90004FEA400C0CF1807CBCF17E4F28BF7047BB
:100FA000B0F1C04000F0AAB890EA010F0CEAD113EA
:100FB00048BF42F48072624538BF634507D213F4DC
:100FC0007F0F16D080EA010000F00040704710B596
:100FD00000F04EF8097EFC3E00F005B880EA010002
:100FE00000F00040704780EA010000F0004000F08F
:100FF00085B812F47F0F04BF0248704780EA0100F1
:1010000000F07CB80000C07F41000B0ED3F19E02BF
:1010100008D950F400034FEA032323FA02F048BF33
:101020004042704710B500F023F800BF4992248079
:10103000002070476FF0004282EA200070470000F5
:1010400010F0004148BF4042B0FA80F310FA03F2BA
:10105000C3F19D030BD051EAC35101EB122053069B
:1010600038BF704700F1010008BF20F00100704751
:101070000EF1020E2EF0030E5EF8044B244204D44F
:101080004FEA4102B2F17F4F11D84FEA4003B3F16A
:101090007F4F0CD80ED14FEAD07CB2F17F4F0CEBD2
:1010A0004C0C0CF1020C08BF4CEBD17C04E04FF06F
:1010B000080C01E04FEAD17C0CEB4C0324FA03F45A
:1010C00004F00704B4F1040C06D20EEB840CBDE866
:1010D00010404CF0010C6047DFE80CF007080202FA
:1010E0004FF00040A0F5800010BD0846420018BF38
:1010F000D2F1807288BF00F0004010BDFF2141EAAC
:10110000D050C005704700002811000800000020E2
:1011100044000000280100086C1100084400002071
:101120002C0700004401000800A24A04000000004F
:101130000000000001020304060708090000000087
:101140000000000000000000000000000001020399
:10115000040102030406070809020406080000004F
:0C11600000000000000000000000000083
:04000005080000ED02
:00000001FF
