:020000040800F2
:1000000048070020890100089103000889030008BF
:100010008D03000839020008D7070008000000001F
:10002000000000000000000000000000D5030008F0
:100030003D0200080000000093030008E9040008E6
:10004000A3010008A3010008A3010008A301000800
:10005000A3010008A3010008A3010008A3010008F0
:10006000A3010008A3010008A3010008A3010008E0
:10007000A3010008A3010008A3010008A3010008D0
:10008000A3010008A3010008A3010008A3010008C0
:10009000A3010008A3010008A3010008A3010008B0
:1000A000A3010008A3010008A3010008A3010008A0
:1000B000A3010008A3010008A3010008A301000890
:1000C000A3010008A3010008A3010008A301000880
:1000D000A3010008F1060008A3010008A30100081D
:1000E000A3010008A3010008A301000800F002F822
:1000F00000F03AF80AA090E8000C82448344AAF188
:100100000107DA4501D100F02FF8AFF2090EBAE885
:100110000F0013F0010F18BFFB1A43F0010318473B
:100120000408000024080000103A24BF78C878C1F1
:10013000FAD8520724BF30C830C144BF04680C60ED
:10014000704700000023002400250026103A28BF35
:1001500078C1FBD8520728BF30C148BF0B60704739
:100160001FB51FBD10B510BD00F033F81146FFF7E5
:10017000F7FF00F057FB00F051F803B4FFF7F2FF70
:1001800003BC00F02AFB00000948804709480047EB
:10019000FEE7FEE7FEE7FEE7FEE7FEE7FEE7FEE737
:1001A000FEE7FEE704480549054A064B7047000094
:1001B000ED040008ED000008480100204807002079
:1001C000480300204803002070477047704770477D
:1001D0007047754600F02CF8AE4605006946534658
:1001E00020F00700854618B020B5FFF7DBFFBDE81B
:1001F00020404FF000064FF000074FF000084FF08E
:10020000000B21F00701AC46ACE8C009ACE8C0091E
:10021000ACE8C009ACE8C0098D46704710B504468B
:10022000AFF300802046BDE81040FFF7A6BF0000F6
:1002300000487047E800002000BFFEE770472DE946
:10024000F04102460025002600200023002400275C
:1002500091F803C00CF00F0591F803C00CF0100CDE
:10026000BCF1000F03D091F802C04CEA050591F8EB
:1002700000C0BCF1000F31D0146800202BE04FF01B
:10028000010C0CFA00F3B1F800C00CEA03069E4220
:1002900020D183004FF00F0C0CFA03F7BC4305FA92
:1002A00003FC4CEA040491F803C0BCF1280F06D10A
:1002B0004FF0010C0CFA00FCC2F814C00AE091F8EF
:1002C00003C0BCF1480F05D14FF0010C0CFA00FC43
:1002D000C2F810C0401C0828D1D31460B1F800C087
:1002E000BCF1FF0F34DD546800202EE000F1080C53
:1002F0004FF0010808FA0CF3B1F800C00CEA03064D
:100300009E4221D183004FF00F0C0CFA03F7BC433F
:1003100005FA03FC4CEA040491F803C0BCF1280F71
:1003200005D100F1080C08FA0CF8C2F8148091F815
:1003300003C0BCF1480F07D100F1080C4FF00108D1
:1003400008FA0CF8C2F81080401C0828CED354607C
:10035000BDE8F081416170470161704708B5012136
:10036000082000F027F84FF4C070ADF8000010200E
:100370008DF8030003208DF8020069460148FFF75D
:100380005EFF08BD000C014000BFFEE700BFFEE7B6
:100390007047704729B1064AD2690243044BDA61BB
:1003A00004E0034AD2698243014BDA6170470000DE
:1003B0000010024029B1064A92690243044B9A6137
:1003C00004E0034A92698243014B9A61704700003E
:1003D00000100240704710B500F002F810BD000098
:1003E0000CB50020019000903348006840F4803044
:1003F0003149086000BF3048006800F400300090C8
:100400000198401C0190009818B90198B0F5A06FB0
:10041000F1D12948006800F4003010B101200090AB
:1004200001E0002000900098012843D12348006893
:1004300040F01000214908600846006820F00300E1
:1004400008600846006840F0020008601A484068EA
:10045000194948600846406848600846406840F4CA
:10046000806048600846406820F47C104860084678
:10047000406840F4E81048600846006840F080702A
:10048000086000BF0C48006800F000700028F9D038
:100490000948406820F00300074948600846406862
:1004A00040F00200486000BF0348406800F00C00C4
:1004B0000828F9D10CBD00000010024000200240C5
:1004C000042808D14FF0E021096941F004014FF000
:1004D000E022116107E04FF0E021096921F00401F9
:1004E0004FF0E022116170477047000010B51348CB
:1004F000006840F001001149086008464068104952
:1005000008400E494860084600680E4908400B49FB
:1005100008600846006820F48020086008464068AB
:1005200020F4FE0048604FF41F008860FFF753FF7F
:100530004FF000600449086010BD00000010024048
:100540000000FFF8FFFFF6FE08ED00E021B1028891
:1005500042F08002028004E002884FF67F731A4066
:100560000280704721B1028842F00102028004E05B
:1005700002884FF6FE731A400280704731B1B0F81E
:10058000442042F40042A0F8442005E0B0F84420A2
:10059000C2F30E02A0F844207047000070B500249A
:1005A00000220023058C4FF6FE7635400584028C30
:1005B0008388048B4FF68F752C40B51E2C400D8818
:1005C0002C43751E2A400D892A434D882A43144D19
:1005D000A8420BD0134DA84208D0134DA84205D015
:1005E000124DA84202D0124DA84213D14FF6F77512
:1005F0002A404D892A434FF6FB752A408D882A43AD
:100600004FF6FF652B404FF6FF552B408D892B434E
:10061000CD892B4383800483CD888586028470BD79
:10062000002C0140003401400040014000440140E2
:10063000004801400A460021018B4FF6F77319402C
:1006400011430183704781867047000000220288B1
:100650001D4B98420ED01D4B98420BD0B0F1804FED
:1006600008D01B4B984205D01A4B984202D01A4B27
:10067000984204D14FF68F731A404B881A43174B98
:10068000984207D0164B984204D04FF6FF431A40C9
:10069000CB881A4302808B8883850B8803850A4B9D
:1006A00098420BD0094B984208D00E4B984205D087
:1006B0000D4B984202D00D4B984201D10B7A038624
:1006C0000123838270470000002C01400034014068
:1006D0000004004000080040000C004000100040F2
:1006E0000014004000400140004401400048014027
:1006F00010B540F225511D4800F03EF810B31B48DC
:1007000000F064F8C4B21A48008800F40040C8B988
:100710001748008800F4804060B10A2C03D0002004
:100720001349088020E01248008840F40040104936
:10073000088019E00D2C06D10D48008840F4804057
:100740000B49088010E00A480088C0F30D000949F1
:100750000C5407480088401C05490880084600885A
:10076000C72801DD0020088010BD000000380140CE
:100770001C0000202000002070B502460024002349
:100780000025002040F66A16B14200D100BFC1F337
:10079000421501F01F03012606FA03F3012D02D1D1
:1007A0009689334006E0022D02D1168A334001E0DB
:1007B000968A33400C12012606FA04F41688344057
:1007C00013B10CB1012000E0002070BD0146888803
:1007D000C0F30800704700BFFEE7014600BF704746
:1007E00010B56FF00400FFF76BFE0A4800680A4975
:1007F000B0FBF1F0094908700846007800EB4001B1
:10080000C1EBC0104FF6FF7101EAC0000449088037
:1008100010BD00000000002000127A00140000202B
:1008200016000020FFF762FEFFF7DAFFFFF796FDE4
:1008300000F02CF802E0012000F002F8FBE70000D5
:1008400010B50446012C0CD180210E48FFF784FD21
:1008500021020C48FFF77EFD40F6B8310A48FFF749
:10086000F2FE6CB94FF480710648FFF775FD8021E8
:100870000448FFF76FFD4FF47A610348FFF7E3FE8A
:1008800010BD0000000C01400008004000B589B018
:1008900001210420FFF77EFD01210820FFF78AFDDA
:1008A0004020ADF8200003208DF8220018208DF89C
:1008B000230008A91948FFF7C2FC41F61F40ADF814
:1008C00018000020ADF81400ADF81A00ADF81600BD
:1008D00005A91348FFF7BAFE6020ADF80400002018
:1008E000ADF80A00ADF80C000120ADF8060001A932
:1008F0000B48FFF753FE01210948FFF73FFE08218F
:100900000748FFF797FE01210548FFF71FFE012169
:100910000348FFF727FE09B000BD0000000C0140AE
:1009200000080040440900080000002020000000EA
:1009300028010008640900082000002028070000A2
:100940004401000800A24A0400000000000000006A
:10095000010203040607080900000000000000006F
:040960000000000093
:04000005080000ED02
:00000001FF
