:020000040800F2
:10000000A804002001010008FD200008F51F0008D9
:10001000F920000889060008B92600080000000041
:10002000000000000000000000000000C5210008E2
:10003000D5060008000000008121000825220008E4
:100040001B0100081B0100081B0100081B01000820
:100050001B0100081B0100081B0100081B01000810
:100060001B0100081B0100081B0100081B01000800
:100070001B0100081B0100081B0100081B010008F0
:100080001B0100081B0100081B0100081B010008E0
:100090001B0100081B0100081B0100081B010008D0
:1000A0001B0100081B0100081B0100081B010008C0
:1000B000AD2200081B0100081B0100081B010008FD
:1000C0001B0100081B0100081B0100081B010008A0
:1000D0001B0100081B0100081B0100081B01000890
:1000E0001B0100081B0100081B010008DFF80CD0F1
:1000F00000F02AFA00480047C5270008A80400209D
:100100000648804706480047FEE7FEE7FEE7FEE7B1
:10011000FEE7FEE7FEE7FEE7FEE7FEE7A9220008AE
:10012000ED000008D2B201E000F8012B491EFBD21D
:1001300070470022F6E710B513460A4604461946F2
:10014000FFF7F0FF204610BD30B50B4601460020FA
:100150002022012409E021FA02F59D4205D303FA89
:1001600002F5491B04FA02F52844151EA2F101020A
:10017000F1DC30BD2DE9F05F0546002092469B463C
:1001800088460646814640241BE0284641464746AD
:10019000224600F0FAF953465A46C01A914110D34C
:1001A00011461846224600F0E1F92D1A67EB0108C6
:1001B0004F4622460120002100F0D8F917EB000934
:1001C0004E41201EA4F10104DFDC484631462A4698
:1001D0004346BDE8F09F2DE9FE4F804681EA0300CB
:1001E000C00F0C46009021F0004123F00045B8EB11
:1001F0000200A94105D24046214690461C460B46C6
:10020000024623F00040104347D0270DC7F30A00F1
:10021000C3F30A510290401A019040286BDAC3F3ED
:10022000130040F4801B0098924620B10023D2EBCB
:10023000030A63EB0B0B01985946C0F1400250468C
:1002400000F094F906460D4650465946019A00F0D2
:10025000ACF910EB08006141002487EA115284EAEE
:10026000E7731A4340D0009A62B3019A012A4FEA19
:10027000075215DC001B61EB02014FF0004202EA5D
:100280000752CDE90042001C41F5801132462B4651
:1002900000F0ACF903B0BDE8F08F40462146F9E725
:1002A000001B61EB0201001C41F5801300185B414B
:1002B0002018A2F5001747EB030140EAD570B619E4
:1002C0006D4111E06D084FEA360645EAC0754FEA08
:1002D0000752001B61EB0201001C41F58011490827
:1002E0004FEA30000019514132462B4603B0BDE8B9
:1002F000F04F00F06CB90098012240000023D0EBD1
:10030000020263EBE073009821464FEAE074B8EB19
:10031000000061EB0401E9E783F000435BE781F053
:10032000004158E72DE9FE4F81EA030404F0004440
:1003300021F0004100944FF0000B23F0004350EAFD
:1003400001045ED052EA03045BD0C3F30A54C1F344
:100350000A552C44A4F2F3340194A0FB0254C1F3D7
:10036000130141F48011C3F3130343F4801301FB21
:10037000024400FB034E840A970A44EA815447EA88
:100380008357A4FB076802958D0A05FB07854FEA92
:10039000932C04FB0C542705029D4FEA065847EAAC
:1003A0001637B5EB08056EEB070C870E920E47EA81
:1003B000811742EA8312A7FB0201B6EB0B0164EB43
:1003C00000042B0D43EA0C335E1844EB1C50DA4654
:1003D0005146E7FB0201C5F313044FEA0B3343EA2E
:1003E00014534FEA0432019C43EA0603A4F10C04BF
:1003F0000294009CCDE900B400F0F8F803B0BDE829
:10040000F08F00200146F9E72DE9F04D81EA030461
:1004100004F0004B21F0004514464FF0000A23F091
:10042000004150EA050220D054EA01021DD0C5F374
:100430000A570246C5F31303C1F31300C1F30A566A
:1004400040F4801543F48013A7EB0608101BD64632
:1004500008F2FD3873EB050002D308F1010801E052
:1004600092185B41B8F1000F03DA00200146BDE8A5
:10047000F08D00204FF48011064684460EE0171BD5
:1004800073EB050705D3121B63EB050306434CEA28
:10049000010C49084FEA300092185B4150EA01070D
:1004A000EDD152EA030012D082EA040083EA05018A
:1004B000084305D0101BAB4106D20122002306E001
:1004C00000224FF0004302E06FF0010253101AEBDC
:1004D00006004CEB085110EB0A0041EB0B01BDE8A4
:1004E000F04D00F074B8C1F30A52C1F3130140F2A9
:1004F000FF3341F480119A4202DA0020014670472E
:1005000040F233439A42A2F2334202DC524200F0FC
:100510003CB800F02BB8000030B5041E71F10004A7
:1005200004DB4FF00044404264EB0101141E73F100
:10053000000405DB1C464FF00043524263EB04030A
:10054000994208BF904230BD064C074D06E0E06876
:1005500040F0010394E8070098471034AC42F6D30A
:10056000FFF7C8FD2831000848310008202A04DBC5
:10057000203A00FA02F1002070479140C2F12003B6
:1005800020FA03F3194390407047202A04DB203AF5
:1005900021FA02F00021704721FA02F3D040C2F1A3
:1005A00020029140084319467047202A06DBCB17EA
:1005B000203A41FA02F043EAE07306E041FA02F31E
:1005C000D040C2F12002914008431946704710B54F
:1005D000141E73F1000408DA401C41F10001921866
:1005E0005B411A4301D120F0010010BD2DE9F04D0F
:1005F00092469B4611B1B1FA81F202E0B0FA80F264
:1006000020329046FFF7B2FF04460F4640EA0A0048
:1006100041EA0B0153465A46084313D0114653EAA8
:10062000010019D0C8F140025046FFF7AEFF054661
:100630000E46504659464246FFF798FF084305D0FC
:10064000012004E020463946BDE8F08D0020054336
:1006500046EAE0762C4337430A986305E40AA0EBA8
:1006600008000022FD0A44EA47540A3002D500205F
:100670000146E9E7010510196941DDE9084500195E
:100680006941BDE8F04DA2E7FFE7FEE780B582B023
:1006900040F21000C2F2000043F60001C4F2010172
:1006A00001604FF4E131416000218160C16001616E
:1006B00081610C214161019001F034FB0199D1F875
:1006C00000E0DEF80C2042F02002CEF80C20009072
:1006D00002B080BD7047000081B0EFF3108072B6A9
:1006E0000090FFE7FEE7000080B584B0014603906C
:1006F000009100F0DFF90290039801900198013019
:10070000002809D0FFE740F20800C2F2000000789C
:10071000019908440190FFE7FFE700F0CBF9DDF80D
:1007200008E0A0EB0E00DDF804E0704501D2FFE721
:10073000F3E704B080BD000093B00A460346129070
:100740001191002010900C9008920793FFE71198E8
:1007500000681099C840002800F08881FFE71098D1
:10076000012101FA00F00F90119800680F990840DC
:100770000E900E980F99884240F07481FFE711980F
:1007800040680028069051D0FFE7069801283AD02B
:10079000FFE7069802283FD0FFE70698032860D0BD
:1007A000FFE70698112832D0FFE70698122838D0C4
:1007B000FFE70020C1F211000699814236D0FFE721
:1007C0000020C1F21200069981422FD0FFE70020DD
:1007D000C1F221000699814228D0FFE70020C1F232
:1007E00022000699814221D0FFE70020C1F23100AA
:1007F000069981421AD0FFE70020C1F23200069923
:10080000814213D030E01198C0680C902DE011980F
:10081000C06804300C9028E01198C06808300C9033
:1008200023E01198C0680C300C901EE0119880688D
:10083000002803D1FFE704200C9011E01198806894
:10084000012806D1FFE708200C900F981299086143
:1008500005E008200C900F9812994861FFE7FFE728
:1008600003E000200C9000E0FFE70E98FF2803D87B
:10087000FFE71298059003E0129804300590FFE717
:1008800005980B900E98FF2804D8FFE71098800079
:10089000049006E010986FF01F0101EB80000490B7
:1008A000FFE704980A900B9800680A990F228A4083
:1008B00090430C9A02FA01F108430B9908601198D1
:1008C0004068C000002840F1CC80FFE7FFE741F21C
:1008D0001800C4F20200016841F0010101600068E3
:1008E00000F00100099009980390FFE7109820F0AC
:1008F00003000821C4F2010140580D90109800F047
:10090000030080000F2101FA00F00D9921EA000098
:100910000D90129840F60001C4F20101884203D103
:10092000FFE70020029026E0129840F60041C4F252
:100930000101884203D1FFE70120019018E01298DD
:1009400041F20001C4F20101884203D1FFE7022015
:1009500000900AE0129841F20041C4F20101042221
:10096000884208BF03220092FFE700980190FFE74A
:1009700001980290FFE70298109901F003018900A5
:1009800088400D9908430D900D98109921F00301AE
:100990000822C4F20102885011984068C002002861
:1009A00009D5FFE70E9840F20841C4F201010A6838
:1009B0001043086009E00E9840F20841C4F20101BA
:1009C0000A6822EA00000860FFE711984068800288
:1009D000002809D5FFE70E9840F20C41C4F201014E
:1009E0000A681043086009E00E9840F20C41C4F216
:1009F00001010A6822EA00000860FFE711984068D8
:100A00008003002809D5FFE70E9840F20441C4F2A4
:100A100001010A681043086009E00E9840F20441A1
:100A2000C4F201010A6822EA00000860FFE7119899
:100A30004068C003002809D5FFE70E9840F2004146
:100A4000C4F201010A681043086009E00E9840F200
:100A50000041C4F201010A6822EA00000860FFE7D1
:100A6000FFE7FFE710980130109070E613B0704771
:100A700080B585B013468C4686460490ADF80E10BE
:100A80008DF80D209DF80D0000280293CDF804C0CC
:100A9000CDF800E005D0FFE7BDF80E00049908612D
:100AA00005E0BDF80E00000404990861FFE705B0F9
:100AB00080BD000040F2A000C2F200000068704754
:100AC00040F20800C2F20000007840F2A001C2F239
:100AD00000010A68104408607047000080B582B0C9
:100AE00042F20000C4F20200016841F0100101600E
:100AF000032000F0A9F80F2000F006F8019000F0A4
:100B00003FF8002002B080BD80B584B0014602905D
:100B100040F20400C2F20000006840F20802C2F293
:100B2000000212784FF47A73B3FBF2F2B0FBF2F0EA
:100B3000019100F0B7FD002804D0FFE701208DF8F7
:100B40000F0018E002980F280DD8FFE702994FF028
:100B5000FF30002200F054F8029840F20C01C2F27B
:100B60000001086003E001208DF80F0003E0002081
:100B70008DF80F00FFE79DF80F0004B080BD000066
:100B800085B0FFE741F21800C4F20200016841F0AD
:100B900001010160006800F00100049004980190D8
:100BA000FFE7FFE741F21C00C4F20200016841F0D8
:100BB00080510160006800F080500390039800901D
:100BC000FFE7FFE70420C4F20100016802910299E7
:100BD00021F0E0610291029941F0007102910299C5
:100BE0000160FFE705B0704780B582B001468DF81F
:100BF00007009DF90700009101F060FD02B080BD83
:100C000080B58AB013468C4686468DF82700089139
:100C10000792002006900593CDF810C0CDF80CE0A7
:100C200001F068FD069006980899079A9DF927300B
:100C3000029301F065FA029901900846019901F0CA
:100C400061FD0AB080BD000080B582B00146019010
:100C50000198009101F07CFD02B080BD80B588B0A4
:100C60000A460346069005910698002803920293CF
:100C700004D1FFE701208DF81F0020E1059842F222
:100C80000001C4F20201096801F00701884216D987
:100C9000FFE742F20000C4F20200016821F0070100
:100CA000059A11430160006800F007000599884229
:100CB00004D0FFE701208DF81F0000E1FFE7069850
:100CC0000068800700282AD5FFE7069800684007DB
:100CD000002809D5FFE741F20400C4F202000168D0
:100CE00041F4E0610160FFE7069800680007002812
:100CF00009D5FFE741F20400C4F20200016841F4A3
:100D000060510160FFE741F20400C4F20200016893
:100D100021F0F001069A926811430160FFE70698FE
:100D20000068C007002862D0FFE7069840680128E5
:100D30000ED1FFE741F20000C4F20200006810F497
:100D4000003F04D1FFE701208DF81F00B7E021E04C
:100D50000698406802280ED1FFE741F20000C4F275
:100D60000200006810F0007F04D1FFE701208DF839
:100D70001F00A4E00DE041F20000C4F20200006890
:100D800010F0020F04D1FFE701208DF81F0096E05C
:100D9000FFE7FFE741F20400C4F20200016821F01E
:100DA0000301069A526811430160FFF783FE049025
:100DB000FFE741F20400C4F20200006800F00C00FA
:100DC00006994968B0EB810F10D0FFE7FFF772FE7C
:100DD000DDF810E0A0EB0E0041F2893E704504D32F
:100DE000FFE703208DF81F0069E0E2E7FFE70598C1
:100DF00042F20001C4F20201096801F007018842D1
:100E000016D2FFE742F20000C4F20200016821F0AE
:100E10000701059A11430160006800F00700059979
:100E2000884204D0FFE701208DF81F0047E0FFE76C
:100E300006980068400700280CD5FFE741F204003F
:100E4000C4F20200016821F4E061069AD2681143FD
:100E50000160FFE706980068000700280DD5FFE74E
:100E600041F20400C4F20200016821F46051069AC4
:100E7000126941EAC2010160FFE700F053F841F254
:100E8000040EC4F2020EDEF800E0CEF3031E43F2BD
:100E9000FA01C0F6000111F80E10C84040F204013A
:100EA000C2F20001086040F20C00C2F200000068CB
:100EB000FFF72AFE00218DF81F100190FFE79DF833
:100EC0001F0008B080BD000040F20400C2F2000024
:100ED0000068704780B5FFF7F7FF41F2040EC4F2D7
:100EE000020EDEF800E0CEF3022E43F20A11C0F645
:100EF000000111F80E10C84080BD000080B5FFF75A
:100F0000E3FF41F2040EC4F2020EDEF800E0CEF37D
:100F1000C22E43F20A11C0F6000111F80E10C840AB
:100F200080BD000086B000200590049003900290E0
:100F3000019041F20400C4F2020000680590059897
:100F400000F00C0001460028009140D0FFE7009817
:100F5000042804D0FFE70098082806D038E041F2C2
:100F60000020C0F27A00019038E00598C0F3834079
:100F700043F21211C0F60001085C02909DF81600C1
:100F8000C007002818D0FFE741F20400C4F20200B5
:100F90000068C0F3404043F22211C0F60001085C33
:100FA0000490029841F20021C0F27A01484304996A
:100FB000B0FBF1F0039007E0029840F60011C0F298
:100FC0003D0148430390FFE70398019006E0FFE7E7
:100FD00041F20020C0F27A000190FFE7019806B0CC
:100FE0007047000080B588B001460690069800283A
:100FF000019104D1FFE701208DF81F004EE3069810
:101000000068C007002800F0B580FFE741F2040047
:10101000C4F20200006800F00C00042813D0FFE7BF
:1010200041F20400C4F20200006800F00C0008283D
:101030001CD1FFE741F20400C4F20200006810F482
:10104000803F13D0FFE741F20000C4F202000068C5
:1010500010F4003F09D0FFE706984068002804D14B
:10106000FFE701208DF81F0018E382E0FFE70698F4
:101070004068B0F5803F09D1FFE741F20000C4F2BB
:101080000200016841F48031016033E00698406855
:1010900000280DD1FFE741F20000C4F20200016810
:1010A00021F480310160016821F48021016020E099
:1010B00006984068B0F5A02F0DD1FFE741F200007F
:1010C000C4F20200016841F480210160016841F42A
:1010D000803101600CE041F20000C4F202000168BE
:1010E00021F480310160016821F480210160FFE773
:1010F000FFE7FFE7FFE70698406800281CD0FFE7FE
:10110000FFF7D8FC0590FFE741F20000C4F20200AF
:10111000006810F4003F0ED1FFE7FFF7CBFCDDF8CD
:1011200014E0A0EB0E00652804D3FFE703208DF840
:101130001F00B3E2E8E71BE0FFF7BCFC0590FFE708
:1011400041F20000C4F20200006810F4003F0ED02B
:10115000FFE7FFF7AFFCDDF814E0A0EB0E00652819
:1011600004D3FFE703208DF81F0097E2E8E7FFE7CD
:10117000FFE7FFE7069800688007002840F19280AB
:10118000FFE741F20400C4F20200006810F00C0F07
:1011900013D0FFE741F20400C4F20200006800F03F
:1011A0000C00082829D1FFE741F20400C4F2020034
:1011B000006810F4803F20D1FFE741F20000C4F244
:1011C0000200006810F0020F09D0FFE706980069DE
:1011D000012804D0FFE701208DF81F005EE241F2F4
:1011E0000000C4F20200016821F0F801069A526979
:1011F00041EAC2010160FFE753E006980069002858
:101200002DD0FFE70020C4F2422001210160FFF74A
:1012100051FC0590FFE741F20000C4F202000068B3
:1012200010F0020F0ED1FFE7FFF744FCDDF814E0E9
:10123000A0EB0E00032804D3FFE703208DF81F0066
:101240002CE2E8E741F20000C4F20200016821F05C
:10125000F801069A526941EAC201016020E00020CB
:10126000C4F2422000210160FFF724FC0590FFE753
:1012700041F20000C4F20200006810F0020F0ED02C
:10128000FFE7FFF717FCDDF814E0A0EB0E000328E2
:1012900004D3FFE703208DF81F00FFE1E8E7FFE735
:1012A000FFE7FFE706980068000700284DD5FFE735
:1012B00006988069002825D0FFE740F28040C4F2FC
:1012C000422001210160FFF7F5FB0590FFE741F2A5
:1012D0002400C4F20200006810F0020F0ED1FFE7F4
:1012E000FFF7E8FBDDF814E0A0EB0E00032804D3C1
:1012F000FFE703208DF81F00D0E1E8E7012000F0B0
:1013000041FF21E040F28040C4F242200021016010
:10131000FFF7D0FB0590FFE741F22400C4F2020082
:10132000006810F0020F0ED0FFE7FFF7C3FBDDF8F7
:1013300014E0A0EB0E00032804D3FFE703208DF890
:101340001F00ABE1E8E7FFE7FFE70698006840070A
:10135000002840F1E180FFE700208DF80F0041F206
:101360001C00C4F20200006810F0805F14D1FFE797
:10137000FFE741F21C00C4F20200016841F0805115
:101380000160006800F08050029002980090FFE732
:1013900001208DF80F00FFE747F20000C4F20000C3
:1013A000006810F4807F24D1FFE747F20000C4F208
:1013B0000000016841F480710160FFF77BFB05903C
:1013C000FFE747F20000C4F20000006810F4807FDD
:1013D0000ED1FFE7FFF76EFBDDF814E0A0EB0E0087
:1013E000652804D3FFE703208DF81F0056E1E8E7E6
:1013F000FFE7FFE70698C068012809D1FFE741F23F
:101400002000C4F20200016841F00101016032E0F5
:101410000698C06800280DD1FFE741F22000C4F211
:101420000200016821F001010160016821F004015E
:1014300001601FE00698C06805280DD1FFE741F262
:101440002000C4F20200016841F00401016001685B
:1014500041F0010101600CE041F22000C4F2020001
:10146000016821F001010160016821F004010160BF
:10147000FFE7FFE7FFE7FFE70698C06800281ED0F8
:10148000FFE7FFF717FB0590FFE741F22000C4F2EA
:101490000200006810F0020F10D1FFE7FFF70AFB0F
:1014A000DDF814E0A0EB0E0041F2893E704504D354
:1014B000FFE703208DF81F00F0E0E6E71DE0FFF7EF
:1014C000F9FA0590FFE741F22000C4F2020000683B
:1014D00010F0020F10D0FFE7FFF7ECFADDF814E090
:1014E000A0EB0E0041F2893E704504D3FFE70320D4
:1014F0008DF81F00D2E0E6E7FFE79DF80F00012816
:1015000009D1FFE741F21C00C4F20200016821F09A
:1015100080510160FFE7FFE70698C069002800F0EE
:10152000B980FFE741F20400C4F20200006800F055
:101530000C00082800F08880FFE70698C0690228A0
:1015400060D1FFE76020C4F2422000210160FFF774
:10155000B1FA0590FFE741F20000C4F20200006812
:1015600010F0007F0ED0FFE7FFF7A4FADDF814E0DB
:10157000A0EB0E00032804D3FFE703208DF81F0023
:101580008CE0E8E70698006AB0F5803F0CD1FFE7F1
:1015900041F20400C4F20200016821F40031069A0D
:1015A000926811430160FFE741F20400C4F20200B7
:1015B000016821F47411069A136A526A1A4311439E
:1015C00001606020C4F2422001210160FFF772FA3D
:1015D0000590FFE741F20000C4F20200006810F03D
:1015E000007F0ED1FFE7FFF765FADDF814E0A0EB0E
:1015F0000E00032804D3FFE703208DF81F004DE001
:10160000E8E720E06020C4F2422000210160FFF7FB
:1016100051FA0590FFE741F20000C4F202000068B1
:1016200010F0007F0ED0FFE7FFF744FADDF814E07A
:10163000A0EB0E00032804D3FFE703208DF81F0062
:101640002CE0E8E7FFE724E00698C069012804D110
:10165000FFE701208DF81F0020E041F20400C4F2F2
:10166000020000680490049800F480300699096A2A
:10167000884208D1FFE7049800F470100699496A7F
:10168000884204D0FFE701208DF81F0006E0FFE745
:10169000FFE7FFE700208DF81F00FFE79DF81F0020
:1016A00008B080BD80B582B00146019001980091DC
:1016B00000F08AFD02B080BD82B001460190009129
:1016C00002B0704782B001460190009102B07047AD
:1016D00087B00A4603460590049101920093FFE704
:1016E000059890F83C00012804D1FFE702208DF80E
:1016F0001B005BE00598012180F83C10FFE7FFE745
:101700000598022180F83D10059800684068039014
:101710000598006880680290039820F0700003909C
:101720000498006803990843039003980599096891
:1017300048600598006842F60041C4F20101884201
:1017400018D0FFE705980068B0F1804F12D0FFE78E
:101750000598006840F20041C4F20001884209D0B7
:10176000FFE70598006840F60001C4F200018842D6
:101770000ED1FFE7029820F08000029004984068A4
:101780000299084302900298059909688860FFE76A
:101790000598012180F83D10FFE70598002180F8A9
:1017A0003C10FFE700208DF81B00FFE79DF81B00B1
:1017B00007B0704780B584B00146029002980028B7
:1017C000019104D1FFE701208DF80F0043E002985A
:1017D00090F83D00002808D1FFE70298002180F82A
:1017E0003C10029800F03CF8FFE70298022180F8D4
:1017F0003D10029850F8041B00900846009900F034
:101800005DFD0298012180F84610FFE70298012152
:1018100080F83E10029880F83F10029880F840103F
:10182000029880F84110FFE7FFE70298012180F855
:101830004210029880F84310029880F844100298F1
:1018400080F84510FFE70298012180F83D10002044
:101850008DF80F00FFE79DF80F0004B080BD000079
:1018600080B586B00146059005980068B0F1804FBC
:1018700003911BD1FFE7FFE741F21C00C4F2020015
:10188000016841F001010160006800F0010004906E
:1018900004980290FFE71C20002101900091009A1B
:1018A000FFF7AEF90198FFF79FF9FFE706B080BD9B
:1018B00080B58EB00A4603460C900B9100208DF83F
:1018C0002B0008920793FFE70C9890F83C00012842
:1018D00004D1FFE702208DF83700BBE00C9801210E
:1018E00080F83C10FFE7FFE70C98022180F83D10DC
:1018F0000C98006880680990099820F0770009909A
:10190000099820F47F40099009980C99096888602B
:101910000B9800680028069000F08280FFE7069888
:1019200010287DD0FFE70698202879D0FFE7069899
:10193000302875D0FFE70698402861D0FFE7069869
:1019400050283DD0FFE70698602849D0FFE7069869
:1019500070280BD0FFE70698B0F5805F05D0FFE751
:101960000698B0F5005F19D061E064E00C9800685B
:101970000B994A688B68C96805911946059B00F068
:1019800019FD0C98006880680990099840F077006C
:10199000099009980C99096888604CE00C980068D7
:1019A0000B994A688B68C96804911946049B00F03A
:1019B00001FD0C980068816841F4804181603AE043
:1019C0000C9800680B994A68C96803911146039AFC
:1019D00000F030FD0C980068502100F011FD2AE065
:1019E0000C9800680B994A68C96802911146029ADE
:1019F00000F052FD0C980068602100F001FD1AE033
:101A00000C9800680B994A68C96801911146019ABF
:101A100000F010FD0C980068402100F0F1FC0AE095
:101A20000C9800680B99096800F0EAFC03E00120BB
:101A30008DF82B00FFE70C98012180F83D10FFE79F
:101A40000C98002180F83C10FFE79DF82B008DF8E2
:101A50003700FFE79DF837000EB080BD82B0014629
:101A60000190009102B0704780B582B001460190AC
:101A700001980068006900F002000022B2EB500FEC
:101A8000009129D0FFE701980068C06800F00200CB
:101A90000021B1EB500F1ED0FFE7019800686FF0F6
:101AA00002010161019801210177019800688069B4
:101AB00010F0030F04D0FFE70198FFF7CFFF06E017
:101AC000019800F017F9019800F01AF9FFE7019862
:101AD00000210177FFE7FFE701980068006900F047
:101AE00004000021B1EB900F29D0FFE701980068B6
:101AF000C06800F004000021B1EB900F1ED0FFE79A
:101B0000019800686FF004010161019802210177DA
:101B100001980068806910F4407F04D0FFE70198C5
:101B2000FFF79CFF06E0019800F0E4F8019800F050
:101B3000E7F8FFE7019800210177FFE7FFE7019849
:101B40000068006900F008000021B1EBD00F29D037
:101B5000FFE701980068C06800F008000021B1EBC1
:101B6000D00F1ED0FFE7019800686FF008010161F7
:101B700001980421017701980068C06910F0030FF3
:101B800004D0FFE70198FFF769FF06E0019800F035
:101B9000B1F8019800F0B4F8FFE70198002101774F
:101BA000FFE7FFE701980068006900F010000021DE
:101BB000B1EB101F29D0FFE701980068C06800F062
:101BC00010000021B1EB101F1ED0FFE70198006844
:101BD0006FF01001016101980821017701980068F8
:101BE000C06910F4407F04D0FFE70198FFF736FF8B
:101BF00006E0019800F07EF8019800F081F8FFE718
:101C0000019800210177FFE7FFE70198006800696C
:101C100010F0010F11D0FFE701980068C06810F0C4
:101C2000010F09D0FFE7019800686FF00101016121
:101C3000019800F06BF8FFE7FFE701980068006982
:101C400000F080000021B1EBD01F14D0FFE7019815
:101C50000068C06800F080000021B1EBD01F09D0FF
:101C6000FFE7019800686FF0800101610198FFF7BC
:101C700023FDFFE7FFE701980068006900F04000DE
:101C80000021B1EB901F14D0FFE701980068C068F5
:101C900000F040000021B1EB901F09D0FFE7019850
:101CA00000686FF040010161019800F035F8FFE72E
:101CB000FFE701980068006900F020000021B1EB07
:101CC000501F14D0FFE701980068C06800F02000A2
:101CD0000021B1EB501F09D0FFE7019800686FF0B9
:101CE000200101610198FFF7EDFCFFE7FFE702B07B
:101CF00080BD000082B001460190009102B07047A3
:101D000082B001460190009102B0704782B0014656
:101D10000190009102B0704782B00146019000919D
:101D200002B0704780B584B0014602900298002846
:101D3000019104D1FFE701208DF80F0043E00298E4
:101D40008069002801D0FFE700E0FFE7029890F8E3
:101D50004100002808D1FFE70298002180F84010D8
:101D6000029800F035F8FFE70298242180F841102E
:101D700002980068C16821F40051C160029800F027
:101D8000BDFB02980068016921F49041016102984D
:101D90000068416921F02A01416102980068C16828
:101DA00041F40051C16002980021416402984FF053
:101DB000200E80F841E0029880F842E002984163EA
:101DC0008DF80F10FFE79DF80F0004B080BD0000F4
:101DD00080B592B0014611900891FFE741F21800DA
:101DE000C4F20200016841F480410160006800F41F
:101DF00080400C900C980790FFE7FFE741F2180035
:101E0000C4F20200016841F008010160006800F0BE
:101E100008000B900B980690FFE7FFE741F21800CF
:101E2000C4F20200016841F008010160006800F09E
:101E300008000A900A980590FFE7FFE70420C4F223
:101E4000010001680991099941F0E061099109993E
:101E500041F00401099109990160FFE740200D90CC
:101E600002200E9001200F900321109140F60041B6
:101E7000C4F201010DAA0490084603911146029292
:101E8000FEF75AFC00200E9080210D9103990190DD
:101E900008460299FEF750FC252000900199049A0B
:101EA000FEF7AEFE0098FEF79FFE12B080BD000068
:101EB000B0B58EB09C4696460C4605460C900B91EC
:101EC000ADF82A200993002006900C9890F8410064
:101ED0002028CDF814C0CDF810E00394029540F00E
:101EE0008080FFE70B98002805D0FFE7BDF82A00A7
:101EF000002804D1FFE701208DF8370075E00C9829
:101F0000002141640C98212180F84110FEF7D2FD98
:101F10000690BDF82A000C998884BDF82A000C9917
:101F2000C8840C988068B0F5805F0AD1FFE70C98F0
:101F30000069002805D1FFE7002008900B98079062
:101F400004E00B98089000200790FFE7FFE70C984B
:101F5000C08C00282DD0FFE70C98069B09996A4693
:101F600011608021002200F02FFB002804D0FFE741
:101F700003208DF8370038E0089800280BD1FFE7E0
:101F8000079800886FF35F200C99096848600798EC
:101F90000230079008E0089800780C9909684860BA
:101FA000089801300890FFE70C98C18C0139C18472
:101FB000CDE70C98069B09996A46116040210022E2
:101FC00000F002FB002804D0FFE703208DF8370063
:101FD0000BE00C98202180F8411000208DF837008C
:101FE00003E002208DF83700FFE79DF837000EB0C0
:101FF000B0BD0000FFE7FEE780B58CB0FFE741F21F
:102000001800C4F20200016841F008010160006894
:1020100000F00800079007980690FFE7012008905D
:102020000021099103220B920A9140F60043C4F269
:1020300001030DF1200C0590184604916146CDF87E
:102040000CC002930192FEF777FB022008900599DD
:102050000991019A0B920A90029B009018460399ED
:10206000FEF76AFB02980099049AFEF701FD0CB096
:1020700080BD000080B586B00020059004900390DC
:1020800002900190009040F25801C2F200014FF01E
:1020900080420A6047224A6088606322CA60086101
:1020A00088610846FFF786FB002803D0FFE7FEF7AC
:1020B00013FBFFE74FF48050029040F25800C2F249
:1020C000000002A9FFF7F4FB002803D0FFE7FEF7AA
:1020D00003FBFFE700200090019040F25800C2F29D
:1020E00000006946FFF7F4FA002803D0FFE7FEF787
:1020F000F3FAFFE706B080BDFFE7FEE7FFE7FEE784
:1021000080B58BB013468C4686460A90099108929A
:102110000A9800F0070007900798C0F1070005280B
:102120000493CDF80CC0CDF808E003D3FFE70420FA
:10213000019004E00798C0F107000190FFE70198C3
:10214000069007980430062803D8FFE70020009087
:1021500003E0079803380090FFE70098059009987E
:102160000699012202FA01F10139084005998840D7
:10217000089B02FA01F10139194008430BB080BDF8
:102180007047000084B001460390039840F20402B7
:10219000C2F200021268D20844F6D353C1F26203BD
:1021A000A2FB03239B095843029001910092FFE791
:1021B00000BFFFE70298411E02910028F8D1FFE717
:1021C00004B070477047000080B584B001460290AB
:1021D00002980138B0F1807F019103D3FFE701201D
:1021E00003901BE0029801384EF21401CEF2000178
:1021F00008604FF0FF300F2100F084FA4EF2180013
:10220000CEF20000002101604EF21000CEF200007C
:102210004FF0070EC0F800E00391FFE7039804B009
:1022200080BD000080B5FEF74BFC80BD80B592B04C
:1022300008A828210290FDF77CFF00200790069057
:10224000059004900390012108914FF4803ECDF851
:1022500024E00A900C9102200F90CDF840E04FF45A
:10226000E01011900298FEF7BDFE002803D0FFE7B2
:10227000FEF732FAFFE70F200390022004900021BE
:1022800005914FF480620692079103A901900846D8
:102290000199FEF7E3FC002803D0FFE7FEF71CFAE4
:1022A000FFE712B080BD00007047000080B540F22B
:1022B0005800C2F20000FFF7D7FB80BD85B00A4688
:1022C000034604900391049800680290049842F633
:1022D0000041C4F2010188420192009315D0FFE74A
:1022E0000498B0F1804F10D0FFE7049840F200410D
:1022F000C4F20001884208D0FFE7049840F60001CC
:10230000C4F2000188420AD1FFE7029820F0700071
:10231000029003984068029908430290FFE70498EE
:1023200042F60041C4F20101884215D0FFE704984B
:10233000B0F1804F10D0FFE7049840F20041C4F2A2
:102340000001884208D0FFE7049840F60001C4F27B
:10235000000188420AD1FFE7029820F44070029001
:102360000398C068029908430290FFE7029820F0A2
:102370008000039949690843029002980499086013
:10238000039880680499C862039800680499886279
:10239000049842F60041C4F20101884205D1FFE7EA
:1023A0000398006904990863FFE7049801214161DB
:1023B00005B07047B0B589B09C4696460C460546B8
:1023C00008900791069205930898806804900498F5
:1023D00020F47F40049007980699059A41EA02216B
:1023E0000843049908430490049808998860CDF83C
:1023F0000CC0CDF808E00194009509B0B0BD000014
:1024000085B00A46034604900391049880680290C0
:10241000029820F07000029003980299084340F05F
:10242000070002900298049988600192009305B019
:102430007047000080B588B013468C4686460790EA
:10244000069105920798006A03900798016A21F0A7
:1024500001010162079880690490049820F0F0005F
:1024600004900598049941EA00100490039820F024
:102470000A0003900698039908430390049807996B
:1024800088610398079908620293CDF804C0CDF8DB
:1024900000E008B080BD000080B588B013468C46CF
:1024A00086460790069105920798006A0390079860
:1024B000016A21F010010162079880690490049874
:1024C00020F4704004900598049941EA003004908B
:1024D000039820F0A00003900698039941EA0010A9
:1024E00003900498079988610398079908620293FA
:1024F000CDF804C0CDF800E008B080BD80B586B04E
:102500000146059005980068006920F44050059A3E
:102510001368D2681043186105988268036940699E
:102520001A431043049005980068C06841F20C6299
:102530009043049A1043059A1268D0600598006889
:10254000406920F44070059A1368926910435861FD
:102550000598006843F60002C4F20102904202911D
:1025600004D1FFE7FEF7CAFC039003E0FEF7B2FCDC
:102570000390FFE703981921484305990A684968C1
:102580008900B0FBF1F048F21F51C5F2EB11A0FB3E
:10259000013C4FEA5C1C4FF0640E0CFB1E004FF038
:1025A000320E0EEB0010A0FB01014FF0F00E0EEA10
:1025B000511E0EEB0C1CC1F3431141EA0C0191605A
:1025C0000193009006B080BD70B58CB0DDF840C0BE
:1025D0009E4614460D4606460A9009918DF8232022
:1025E0000793CDF810E0039402950196CDF800C052
:1025F000FFE70A980068006809990840401AB0FA95
:1026000080F040099DF8231088424DD1FFE71098D3
:102610000130002847D0FFE7109800280BD0FFE7D3
:10262000FEF748FADDF81CE0A0EB0E00DDF840E014
:10263000704537D9FFE7FFE7FFE70A98006850E8E1
:10264000030F20F4D0700690FFE706980A990968F6
:1026500041E80302002AF0D1FFE7FFE7FFE7FFE7C9
:102660000A98006850E8050F20F001000590FFE788
:1026700005980A99096841E80502002AF0D1FFE7A8
:10268000FFE70A98202180F841100A9880F842104C
:10269000FFE70A98002180F84010FFE703208DF83B
:1026A0002F0005E0FFE7A4E700208DF82F00FFE7EB
:1026B0009DF82F000CB070BDFFE7FEE782B0014629
:1026C0008DF807009DF90700002800910FDBFFE758
:1026D0009DF9070000F01F01012202FA01F14009F3
:1026E0004EF20012CEF2000242F82010FFE702B0D4
:1026F000704700004EF60C50CEF200000068C0F3A8
:102700000220704784B00A4603468DF80F000291FC
:102710009DF90F000028019200930ADBFFE7029861
:1027200000019DF90F104EF20042CEF200028854D3
:102730000BE0029800019DF80F1001F00F014EF61A
:102740001452CEF200028854FFE704B07047000034
:1027500084B001460390039800F0070001904EF604
:102760000C50CEF2000002680292029A4FF6FF036C
:102770001A400292029A019B42EA03220023C0F20D
:10278000FA531A430292029A0260009104B0704711
:1027900080B586B00A4603460590049140F21000C9
:1027A000C2F2000005A94FF0010C4FF47A7E0392AB
:1027B000624602937346FFF77BFB0599019008463A
:1027C00006B080BD80B584B000200390FEF786F986
:1027D0000290FFF72BFDFDF759FFFFF74BFC4FF47D
:1027E0007A70FDF781FFFFF707FCFFE743F2241043
:1027F000C0F6000000F008F84FF0780E0190704627
:10280000FDF772FFF2E700000FB4054B10B503A906
:10281000044A029800F0DAF810BC5DF814FB0000DE
:10282000912700080000002002E008C8121F08C11C
:10283000002AFAD170477047002001E001C1121F41
:10284000002AFBD1704700002DE9FF5F82B0002114
:10285000DDE90430020DDDF840B0034318D044F642
:102860001050A2F2FF3242431514119801281FD0D4
:10287000A5EB0B00401C5FEA000A4FF000064E4F2C
:10288000DFF83891B046504615D5CAF1000413E080
:10289000119801244AA3012801D16FEA0B01029883
:1028A000119AC0E90031C0E9024206B0BDE8F09FCC
:1028B000CBF10000DFE704460021404A491842EB13
:1028C0000450CDE9001012E0E00707D032463B4645
:1028D00040464946FDF726FD8046894632463B463E
:1028E00010461946FDF71EFD06460F466410002CE3
:1028F000EAD1DDE90401DDE90023BAF1000F06DACF
:10290000FDF710FD42464B46FDF70CFD05E0FDF7D7
:102910007BFD42464B46FDF777FD04460E460022FE
:10292000284BFDF7F9FD03D84FF0FF30014607E0D3
:102930000022254B20463146FDF74DFCFDF7D3FD27
:10294000102409E0002C0ADB0A220023FDF712FC08
:10295000039B30321A55641E50EA0102F2D1641C06
:10296000039AC4F111031444119A012A03D00122DD
:1029700008430DD10AE0084304D000204FF0110BAA
:10298000119072E7A3EB0B056D1E0DE05B4504DDB6
:102990004FF0000205F1010504E003DA4FF00002F8
:1029A000A5F10105002AECD002981199C0E9023185
:1029B000C0E9004579E70000000014400000F03F46
:1029C000300000000000F0430000E03F2DE9FF4F21
:1029D00095B09B468946064600250FE2252877D10B
:1029E00000242746F84A0121059400E0044316F824
:1029F000013F203B01FA03F01042F7D130782A283A
:102A000011D06FF02F033078A0F13002092A16D8C8
:102A1000059A44F0020402EB820203EB42021044E6
:102A2000761C0590EFE759F8042B0592002A03DA8B
:102A3000504244F40054059044F00204761C30786F
:102A40002E2816D116F8010F44F004042A280DD0C0
:102A50006FF02F023078A0F13003092B09D807EB73
:102A6000870302EB4303C718761CF3E759F8047B8E
:102A7000761C30786C280FD006DC4C2817D06828DC
:102A80000DD06A2814D104E0742810D07A280FD110
:102A90000DE044F400140AE044F4801401E044F42E
:102AA00040147278824202D104F58014761C761CA0
:102AB000307866280BD013DC582877D009DC002842
:102AC00075D04528F6D04628F4D047281AD19DE184
:102AD00018E0632835D0642879D0652812D195E1B3
:102AE000702873D008DC6728F1D069286FD06E2871
:102AF0000DD06F2806D1B5E073282CD0752875D07D
:102B0000782874D05A46179990476D1C75E1C4F324
:102B10000250022809D003280DD0D9F8001004284B
:102B20000DD00D6009F1040967E1D9F80010EA172A
:102B3000C1E90052F6E7D9F800100D80F2E70D70F8
:102B4000F0E719F8041B8DF8001000208DF8010043
:102B5000EA46012003E059F804AB4FF0FF3061076B
:102B60004FF0000102D40DE008F101018846B9429E
:102B70000FDA8045F8DB1AF808100029F4D108E0D4
:102B800008F1010188468142FADB1AF80810002991
:102B9000F6D105985B46A0EB080721463846179A00
:102BA00000F094FA284400EB080507E04DE029E125
:102BB0000DE01AF8010B5A4617999047B8F1010831
:102BC000F7D25B4621463846179A13E142E00A22C3
:102BD0000092C4F302524FF0000A022A08D059F8BA
:102BE00004CB032A4FEAEC710AD00DE029E02AE079
:102BF00009F1070121F00702F2E802C1914609E05C
:102C00000FFA8CFC4FEAEC71042A03D14FFA8CFCCA
:102C10004FEAEC71002907DA0A460021DCF1000CCA
:102C200061EB02012D2202E0220504D52B228DF852
:102C30000420012203E0E20701D02022F7E79046BA
:102C400059E00A2102E010220DE010214FF0000AA5
:102C500000910BE010224FF0000A44F00404082712
:102C6000009203E008224FF0000A0092C4F30252DF
:102C7000022A05D059F804CB0021032A08D009E024
:102C800009F1070121F00702F2E802C1914605E0CF
:102C90001FFA8CFC042A01D10CF0FF0C4FF0000845
:102CA000220728D5702806D0009B83F0100353EA32
:102CB0000A0305D00EE040228DF80420012208E02E
:102CC0005CEA010206D030228DF804208DF8050060
:102CD00002229046009B83F0080353EA0A030AD1BC
:102CE0005CEA010201D1620705D530228DF804208B
:102CF0004FF001087F1E582804D034A003900EA87E
:102D000002900DE036A0F9E753466046009AFDF7C1
:102D100031FA84460398825C0298401E0290027049
:102D20005CEA0100F0D1029806A9081A00F1200A15
:102D3000600702D524F4803400E00127574502DD06
:102D4000A7EB0A0000E0002000EB0A0100900598C4
:102D50004144401A0590E00306D45B462146179A89
:102D6000059800F0B3F90544002706E001A85A468B
:102D7000C05D179990476D1C7F1C4745F6DBE0034B
:102D80000CD55B462146179A059800F09FF905443B
:102D900004E030205A46179990476D1C0099481E50
:102DA00000900029F5DC08E0029802995A46007864
:102DB000491C0291179990476D1CBAF10001AAF1C4
:102DC000010AF1DC65E100000928010030313233ED
:102DD0003435363738396162636465660000000057
:102DE0003031323334353637383941424344454641
:102DF0000000000000F058F90544761C30780028E7
:102E00007FF4ECAD19B02846BDE8F08F620700D41E
:102E1000062709F1070222F0070CFCE80223E1462D
:102E200003F000485FEA080C02D00FF2702C0DE0AE
:102E30005FEA045C02D50FF2682C07E05FEAC47C0D
:102E400002D00FF2602C01E0AFF2700C4FF0FF38AF
:102E500023F00043CDF850C065280CD006DC45288F
:102E600009D046281DD047283DD13DE0662818D01E
:102E700067287ED138E00021112F01DB112000E00E
:102E8000781CCDE9000106A90EA8FFF7DDFCDDE9FD
:102E90000F010E9A03910021009207F1010A04919B
:102EA0004DE04FF000400097CDE9011006A90EA8B3
:102EB000FFF7CAFCDDE90F0203920E9B1199002275
:102EC000DDF80CA00093049211B9791C00EB010A03
:102ED000B7EB0A0004D4C0F1FF3007F1010A0490F7
:102EE000AAEB0700019044E0012F00DA012700213E
:102EF000112F01DD112000E03846CDE9000106A9BF
:102F00000EA8FFF7A1FCDDE90F010E9A0391002145
:102F100004910092BA4621070CD40399514500DA76
:102F20008A46BAF1010F05DD009AAAF10101515C50
:102F3000302908D0B84202DA10F1040F06DA012174
:102F4000CDE9011015E0AAF10101E9E7002805DC4F
:102F5000049901440491AAEB000102E0411C51458F
:102F600000DD8A460499401A401C01904FF0004051
:102F70000290200704D40198504501DBCDF804806D
:102F800000208DF84F0002980DF14F07B0F1004F6F
:102F900025D02B200E9002984FF0020800280CDA62
:102FA000404202902D200E9007E00A210298FDF782
:102FB000CBF83031029007F8011DB8F10001A8F1FB
:102FC0000108F2DC02980028EFD1791E0E980870F3
:102FD000307800F0200040F0450007F8020D12A8FC
:102FE000C01B00F107081498007800B1012000EB25
:102FF0000A01019801EBE07105984144401A401E16
:103000000590E00306D45B462146179A059800F028
:103010005DF805441498007818B15A4617999047FE
:103020006D1CE00324D55B462146179A059800F0F5
:103030004DF805441CE00498002807DBDDE9030196
:10304000884203DD0098405C179901E01799302011
:103050005A469047049805F10105401C04900198D8
:10306000401E019004D12E205A46179990476D1C9E
:10307000BAF10001AAF1010ADDDC05E017F8010B45
:103080005A46179990476D1CB8F10001A8F1010844
:10309000F4DC5B462146179A0598ABE62D0000004C
:1030A0002B000000200000002DE9F041044600251F
:1030B0001E461746880404D405E039462020B04750
:1030C0006D1C641EF9D52846BDE8F0812DE9F0415C
:1030D000044600251E469046C80301D5302700E06F
:1030E0002027880404D505E041463846B0476D1CCA
:1030F000641EF9D52846BDE8F081000000000000FC
:103100000000010203040607080900000000010294
:10311000030402030405060708090A0B0C0D0E0F31
:1031200010100102310000004831000800000020AA
:103130001000000028280008583100081000002066
:103140009804000038280008000000000024F40063
:08315000010000001000000066
:04000005080000ED02
:00000001FF
