:020000040800F2
:10000000C004002001010008A3120008C511000867
:10001000A11200083B030008CF14000800000000F4
:10002000000000000000000000000000A71200080F
:100030007103000800000000A5120008A9120008C2
:100040001B0100081B0100081B0100081B01000820
:100050001B0100081B0100081B0100081B01000810
:100060001B0100081B0100081B0100081B01000800
:100070001B0100081B0100081B0100081B010008F0
:100080001B0100081B0100081B0100081B010008E0
:100090001B0100081B0100081B0100081B010008D0
:1000A0001B0100081B0100081B0100081B010008C0
:1000B000151300081B0100081B0100081B010008A4
:1000C0001B0100081B0100081B0100081B010008A0
:1000D0001B0100081B0100081B0100081B01000890
:1000E0001B0100081B0100081B010008DFF80CD0F1
:1000F00000F0F2F800480047ED140008C0040020AA
:100100000648804706480047FEE7FEE7FEE7FEE7B1
:10011000FEE7FEE7FEE7FEE7FEE7FEE71313000853
:10012000ED000008D2B201E000F8012B491EFBD21D
:1001300070470022F6E710B513460A4604461946F2
:10014000FFF7F0FF204610BD30B480EA010202F054
:10015000004530F0004221F0004013D090B1C30DB3
:10016000D40DC2F31601C0F31600E41A41F40001E5
:1001700040F400027D34914201D3641C00E0490048
:10018000002C02DA30BC002070474FF4000000233E
:10019000914201D3891A034340084FEA4101F7D144
:1001A00051B1914202D14FF0004105E002D24FF02F
:1001B000010101E06FF0010103EBC450284430BCA1
:1001C00000F053B8C10F80EAE0700844CA079623D4
:1001D000002100F053B800F0004220F00040C10DB3
:1001E000C0F3160040F400007F2901DA00207047B8
:1001F000962903DCC1F19601C84001E09639884098
:10020000002AF4D0404270472DE9F05F05460020F7
:1002100092469B4688460646814640241BE0284677
:1002200041464746224600F078F853465A46C01ADF
:10023000914110D311461846224600F05FF82D1A5E
:1002400067EB01084F4622460120002100F056F8D6
:1002500017EB00094E41201EA4F10104DFDC4846E3
:1002600031462A464346BDE8F09F0029A8BF7047A3
:10027000401C490008BF20F00100704710B4B0FADC
:1002800080FC00FA0CF050EA010404BF10BC704777
:1002900049B1CCF1200421FA04F411FA0CF118BF91
:1002A000012121430843A3EB0C01CB1D4FEA006160
:1002B0004FEA102042BF002010BC704700EBC35033
:1002C00010440029A4BF10BC7047401C490008BF5F
:1002D00020F0010010BC7047064C074D06E0E068B6
:1002E00040F0010394E8070098471034AC42F6D37D
:1002F000FFF700FFBC170008DC170008202A04DB0A
:10030000203A00FA02F1002070479140C2F1200328
:1003100020FA03F3194390407047202A04DB203A67
:1003200021FA02F00021704721FA02F3D040C2F115
:1003300020029140084319467047FEE710B50A4C69
:100340000A484FF4E13100220C2384E807002046DC
:10035000C4E90322C4E9053200F06AFE2068C168DE
:1003600041F02001C16010BD28000020003801408C
:100370007047EFF3108072B6FEE7000010B500F092
:100380000FF8054C2060FFF71DFF0449FFF7DCFE66
:10039000FFF721FF606010BD200000200000CE426A
:1003A000F8B51B4E00200121002230608F4C204602
:1003B00000F029F904F580652846022100F01EF9B5
:1003C0000028F9D018270FE04000012100223060FA
:1003D000204600F018F92846022100F00FF910B16C
:1003E000306801303060013F20460121012200F0D9
:1003F0000AF93068002FE7D180F4000001210022C3
:100400003060204600F0FFF8306801B0F0BD00BF5A
:10041000B800002070B505466E1C00F0F9F80446DF
:100420001EB197480078054401E04FF0FF3500F019
:10043000EFF8001BA842FAD370BD00BF2DE9FE4FB4
:10044000614A04234FF0000B4FF0010C4FF00F0EE8
:100450004FF0000A4FF00008904200F1140208BF6C
:100460000323019200930A6832FA08F308BFBDE83B
:10047000FE8F0CFA08F73A4200F0A1804A68032A7E
:1004800016D9112A26D0122A28D0504B9A4213D0BE
:100490004F4B9A421CBF4F4B9A420DD04E4B9A4243
:1004A0001CBF4E4B9A4207D04D4B9A4204D022E0DB
:1004B000DFE802F002181B1F8A6842B1012A019A84
:1004C0004FF0080A08BF00F11002176013E04FF068
:1004D000040A10E0CA6802F1040A0CE0CA6802F1DA
:1004E0000C0A08E0D1F80CA005E0CA6802F1080A7D
:1004F00001E04FF0000AB8F1080F0246454628BF58
:1005000004321368374C28BF2544AE000EFA06F5B6
:100510000AFA06F6AB4333431360CA79D2064ED5C6
:10052000664A4FEA98060BF00C090EFA09F51368B3
:1005300043F001031360126802F001020292029B71
:10054000294CA4F57E7353F8262022EA050C274A8D
:1005500090420AD0264A90420AD0264ADDF800E0AE
:10056000904208BF4FF0020E04E04FF0000E01E091
:100570004FF0010E0EFA09F24FF00F0E42EA0C0294
:100580004FF0010C43F826204A681B4BA66812F472
:10059000801F0CBFBE433E43A66096021E6854BF38
:1005A000BE433E431E609303636854BFBB433B435B
:1005B000D2036360226854BFBA433A4322600BF10E
:1005C000040B08F101084EE700140140000011106F
:1005D0000000121000002110000022100000311055
:1005E00000003210F8FFFF3F000401400008014006
:1005F000000C0140001001400C04014080680840DC
:1006000018BF01207047002A08BF09040161704724
:100610001B488068704700BF194801788268114400
:100620008160704780B50748016841F010010160A2
:10063000032000F081F80F2000F006F800F022F807
:10064000002080BD0020024070B50D4E04464FF4DE
:100650007A713078B1FBF0F096490968B1FBF0F09F
:1006600000F018FB01250F2C08D838B94FF0FF30E7
:1006700021460022002500F033F87460284670BD42
:100680000400002082B00D480222016841F00101FF
:100690000160016801F0010101910199416841F097
:1006A00080514160406800F08050009000980448FC
:1006B000016862F31A61016002B0704718100240CD
:1006C00004000140002808DB00F01F01012240095E
:1006D00002FA01F1014A42F82010704700E100E0FF
:1006E000B0B5144C1A4D00F00F03B0F1FF3FA3F169
:1006F00004032B4403F10C03C8BF03192868C0F39B
:100700000220051DC41E80F00700072D4FF00105D3
:1007100038BF0024042828BF042005FA00F001385F
:10072000084005FA04F10F31A040114008430001D0
:100730001870B0BD00E400E005494FF6FF030A68F9
:100740001A4060F30A22034810430860704700BF54
:100750000CED00E00000FA052DE9F0410446884662
:10076000002C00F08880464F4FF48050395801F03B
:10077000070141450AD2395821F0070141EA080131
:100780003950385800F00700404574D1206810F007
:10079000020F11D0410742BF796841F4E0617960EE
:1007A000010742BF796841F4605179607968A268B5
:1007B00021F0F00111437960C00727D0606801285B
:1007C00004D1396811F4003F08D154E03968022897
:1007D00002D1890102D44EE089074CD5796821F015
:1007E000030108437860FFF713FF064641F288359E
:1007F0007868616800F00C00B0EB810F06D0FFF75D
:1008000007FF801BA842F3D9032035E04FF4805046
:10081000395801F0070141450AD9395821F007013B
:1008200041EA08013950385800F00700404522D10C
:10083000206810F0040F05D07968E26821F4E061C7
:1008400011437960000706D57868216920F460506B
:1008500040EAC100786000F031F87968094AC1F3D4
:100860000311515CC8401349086007480068FFF74E
:10087000EBFE002000E00120C0B2BDE8F08100BF27
:1008800000100240A41700080800002009480A4A86
:10089000006818490968C1F30221515CC8407047DB
:1008A000FA48054A0068F7490968C1F3C221515C5A
:1008B000C840704710000020B41700080D490A68AE
:1008C0000D4802F00C03082B18BF7047C2F3834C8D
:1008D0000AA312F4803F13F80C3002D10C4858439D
:1008E0007047096809A25843C1F34041515CB0FB0D
:1008F000F1F070470410024000127A000203040570
:10090000060708090A0B0C0D0E0F1010010200005B
:1009100000093D002DE9FE4F8246BAF1000F00F0BC
:1009200065819AF80000D64ED64FC00750D038687F
:1009300000F00C00042819D0386800F00C000828DA
:1009400003D1386810F4803F10D1DAF80400A8B160
:10095000B0F5803F06D03168B0F5A02F24D141F426
:1009600080203060306840F4803023E0306810F43C
:10097000003F2DD0DAF8040050BB37E1306820F496
:1009800080303060306820F480203060FFF740FE17
:100990000546306810F4003F1AD0FFF739FE411BBE
:1009A00003206429F5D922E121F4803030603068D9
:1009B00020F480203060FFF72BFE0546306810F4ED
:1009C000003F05D1FFF724FE401B6428F6D9EBE079
:1009D0009AF800008007AC48834632D5386810F09A
:1009E0000C0F1DD0386800F00C00082804BF3868D0
:1009F00010F4803F14D0DAF81000002800F0958041
:100A0000012059460860FFF703FE0546306810F0E4
:100A1000020F0ED1FFF7FCFD401B0228F6D9C3E000
:100A2000306810F0020F1CBFDAF81000012840F007
:100A3000DD803068DAF8141020F0F80040EAC100D8
:100A400030609AF80000000731D5DAF8180080B15C
:100A500001205946C1F88004FFF7DAFD0546386ADF
:100A600010F0020F16D1FFF7D3FD401B0228F6D974
:100A70009AE000205946C1F88004FFF7C9FD0546F9
:100A8000386A10F0020F12D0FFF7C2FD401B022897
:100A9000F6D989E07D484FF4FA510068B0FBF1F0D7
:100AA000029000BF0298411E00280291F9D19AF8E5
:100AB0000000400740F18180B86910F0805F0BD1E1
:100AC000B8694FF0010840F08050B861B86900F093
:100AD00080500190019801E04FF000086C483058B8
:100AE00010F4807F12D16A48315841F4807131503E
:100AF000FFF78EFD05466648305810F4807F05D11B
:100B0000FFF786FD401B6428F5D94DE0DAF80C00AC
:100B1000E8B1012805D0F969052830D141F0040079
:100B2000F861F86940F001002FE0002059460860A4
:100B3000FFF76EFD0546306810F0020F3FF481AFFD
:100B4000FFF766FD411B03200229F4D94FE0F86945
:100B500020F00100F861F86920F00400F861FFF767
:100B600057FD054641F28839F86910F0020F1DD093
:100B7000FFF74EFD411B03204945F5D937E021F031
:100B80000100F861F86920F00400F861FFF740FD0A
:100B9000054641F28834F86910F0020F06D1FFF7DC
:100BA00037FD401BA042F6D9032020E0B8F1010F29
:100BB00002BFB86920F08050B861DAF81C4059468D
:100BC000002C5AD0386800F00C00082813D1012CF2
:100BD0000CD03868DAF8201000F480328A4205D14F
:100BE000DAF8241000F47010884246D00120C0B218
:100BF00003B0BDE8F08F00200866FFF709FD054649
:100C0000022C0AD1306810F0007F11D0FFF700FDF0
:100C1000411B03200229F5D9E9E7306810F0007F75
:100C20002BD0FFF7F5FC411B03200229F5D9DEE7A5
:100C3000DAF82000B0F5803F06D13968DAF80820EC
:100C400021F4003111433960396821F474110843EB
:100C5000DAF82410084338600120CBF86000FFF771
:100C6000D7FC0446306810F0007F06D1FFF7D0FCB7
:100C7000011B03200229F5D9B9E70020B7E700BF1F
:100C80000010024004100240000042421000002008
:100C90000060FEFF411E0020B0EB116F1CBF012061
:100CA0007047044AF023516003490B70072190609C
:100CB0001160704710E000E023ED00E070477047DE
:100CC00090F83C300222012B28D080B5012380F817
:100CD0003C3080F83D2002685368D2F808C0B2F179
:100CE000804F23F0700E0B6843EA0E035360BDE89B
:100CF000804008D00A4B9A421CBF0A4B9A4202D04D
:100D0000094B9A4204D149682CF080031943916041
:100D10000121002280F83D1080F83C20D0B27047BD
:100D200000040040002C01400008004010B50446BB
:100D300034B394F83D0028B9002084F83C002046E4
:100D400000F020F80220211D84F83D00206800F00A
:100D5000E7FA012084F8460084F83E0084F83F005A
:100D600084F8400084F8410084F8420084F843008D
:100D700084F8440084F8450084F83D00002010BD4C
:100D8000012010BD0068B0F1804F18BF7047E0B57A
:100D900009480022016841F001010160002100685A
:100DA00000F00100019001981C20FFF799FC1C2025
:100DB000BDE88C40FFF786BC1C10024010B504460D
:100DC000022094F83C20012A70D001224FF677735C
:100DD00084F83C2084F83D00206882689A43826051
:100DE0000A6812B3102A20D0202A18BF302A1CD03B
:100DF000402A21D0502A2BD0602A35D0B2F5005F8E
:100E00003ED0B2F5805F4AD0702A51D1D1E901239A
:100E1000C9681A4342EA0121826822F47F421143E1
:100E20008160816841F0770138E0816821F07701C5
:100E3000114341F0070131E04B68CA68194600F0E0
:100E4000A9FA2068816821F0770141F0470125E087
:100E50004B68CA68194600F09DFA2068816821F045
:100E6000770141F0570119E04B68CA68194600F054
:100E7000A2FA2068816821F0770141F067010DE056
:100E8000D1E90123C9681A4342EA0121826822F4A8
:100E90007F4211438160816841F48041816000207C
:100EA000012184F83D10002184F83C10C0B210BD2F
:100EB0000120F5E7704710B504462068016911F07C
:100EC000020F1CBFC16811F0020F15D06FF00201B4
:100ED000016101212177806910F0030F03D02046C2
:100EE000FFF7E8FF05E0204600F09EF8204600F0FE
:100EF0009CF8002020772068016911F0040F1CBFC6
:100F0000C16811F0040F15D06FF0040101610221D6
:100F10002177806910F4407F03D02046FFF7CAFF95
:100F200005E0204600F080F8204600F07EF8002022
:100F300020772068016911F0080F1CBFC16811F00B
:100F4000080F15D06FF00801016104212177C069F5
:100F500010F0030F03D02046FFF7ACFF05E020465A
:100F600000F062F8204600F060F80020207720684A
:100F7000016911F0100F1CBFC16811F0100F15D0DE
:100F80006FF01001016108212177C06910F4407FE2
:100F900003D02046FFF78EFF05E0204600F044F81E
:100FA000204600F042F8002020772068016911F007
:100FB000010F1CBFC16811F0010F06D06FF00101D5
:100FC0000161204600F032F82068016911F0800FBD
:100FD0001CBFC16811F0800F06D06FF08001016165
:100FE0002046FFF76BFE2068016911F0400F1CBF1F
:100FF000C16811F0400F06D06FF04001016120463A
:1010000000F015F82068016911F0200F1CBFC168BD
:1010100011F0200F00D110BD6FF0200101612046BA
:10102000BDE81040FFF74BBE7047704770477047F0
:1010300010B504464CB394F8410028B9002084F858
:101040004000204600F024F8242084F84100206865
:10105000C16821F40051C160204600F0BFF920684A
:10106000016921F490410161416921F02A01416146
:10107000C16841F40051C16000202021606484F8FF
:10108000411084F84210606310BD012010BD0000C3
:10109000BFB569486D46016841F48041016001684F
:1010A00001F48041009100991A490A681A4B1A43C9
:1010B0000A60016841F008010160016801F008015F
:1010C00000910099016841F008010160294600681B
:1010D00000F008000090009840200090022001904D
:1010E0000120029003200390544C2046FFF7A6F9FC
:1010F000802029460090002001902046FFF79EF9AD
:10110000252000210122FFF7EBFA2520FFF7DAFA6C
:10111000BFBD00BF04000140040000072DE9F843F3
:1011200004461D461746884694F8410020281CD1E5
:10113000B8F1000F4FF0010018BF002F3ED04FF064
:1011400000092120C4F8449084F84100FFF760FAB8
:10115000A784E7840646A068B0F5805F07D12769B9
:10116000002F0CBFC146474618E0022026E0474644
:1011700014E02046802132462B4600F071F9B8B9C0
:10118000206817B117F8011B04E039F8021B00278B
:101190006FF35F214160E08C0138E084E08C00282F
:1011A000E7D12046402132462B4600F059F908B1DC
:1011B000032003E0202084F841000020C0B201B0E9
:1011C000BDE8F083FEE700007FB51B480022012543
:1011D0000026016841F020010160016801F0200152
:1011E00000910099016841F008010160016801F077
:1011F000080100910099016841F00401016001219A
:10120000006800F00400009000980C4C2046FFF7A6
:10121000FAF9CDE900556D46032002960390204669
:101220002946FFF70BF902202946CDE900062046A2
:101230000296FFF703F97FBD18100240000C014031
:10124000FEB5364800214FF0804247234FF0630C33
:10125000CDE90411CDE90211CDE90011C0E9002367
:10126000C0E9021C01618161FFF760FD08B1FFF771
:1012700080F84FF4805002A902902848FFF79EFDA5
:1012800008B1FFF776F800206946CDE90000234851
:10129000FFF716FD08B1FFF76CF806B080BD00BF80
:1012A000FEE7FEE770477047FFF7B6B9B0B590B0FC
:1012B000002401A81421CDE90B44CDE90944FEF72F
:1012C00038FF01204FF4803102250690CDE9071444
:1012D0000A904FF4E010CDE90D510F9006A8FFF7EA
:1012E00019FB18B1EFF3108072B6FEE70F20022150
:1012F000CDE901054FF480600394CDE9040401A811
:10130000FFF72AFA18B1EFF3108072B6FEE710B0BB
:10131000B0BD70470148FFF7CEBD00BF7000002090
:1013200010B50368184AB0F1804F08D0174CA0429E
:101330001CBF154CA04202D0154CA04203D14C68F2
:1013400023F070032343B0F1804F08D00F4CA0422C
:101350001CBF0D4CA04202D00D4CA04203D1CC6862
:1013600023F4407323434C6923F08003904243EA03
:10137000040303608B68C3620B68836204BF09695E
:1013800011630121416110BD002C014000040040A7
:1013900000080040D0F820C0036A23F00103036274
:1013A000836923F0F00343EA021282612CF00A02FF
:1013B000114301627047D0F820C0036A23F0100384
:1013C0000362836923F4704343EA023282612CF0A2
:1013D000A00242EA011101627047000010B5044604
:1013E00020680169E26821F44051114341F20C6226
:1013F0000161D4F808C0D4E904E3C16891434EEA1E
:101400000C021A431143C1604169A26921F4407181
:10141000114341611149884202D0FFF737FA01E0D8
:10142000FFF73EFA19214843D4E900126FF0630434
:101430009200B0FBF2F06422B0FBF2F303FB040075
:10144000322404EB0010B0FBF2F000F0F00200F0E8
:101450000F0002EB03121043886010BD00380140FA
:101460002DE9F0411D4690460F4604466E1C20684B
:1014700000683840B84226D0002EF8D02DB1FFF7D2
:10148000C7F8A0EB0800A842F1D9206850E8030F84
:10149000216820F4D07041E80302002AF5D12068C9
:1014A00050E8050F216820F0010041E80502002AFC
:1014B000F5D1202084F8410084F84200002084F80F
:1014C0004000032000E00020C0B2BDE8F081FEE74C
:1014D000E0B50190044801A90122FF23FFF71EFE99
:1014E000019802B080BD00BF28000020B0B5FFF712
:1014F00099F8FFF7DBFEFFF767FEFEF71FFFFFF728
:101500009FFE4FF47A70FEF785FFFEF737FF074D19
:1015100007A42860FEF732FF2968091A204669608F
:1015200000F00AF87820FEF775FFF3E718000020B6
:10153000256C640A000000000FB4054B10B503A928
:10154000044A029800F018F810BC5DF814FB000083
:10155000D11400080000002002E008C8121F08C1D2
:10156000002AFAD170477047002001E001C1121F24
:10157000002AFBD1704700002DE9FF4F8BB09A463F
:101580000F460446002606E025280BD052460D994A
:101590009047641C761C20780028F5D10FB03046A7
:1015A000BDE8F08F0025A94601227D4900E00543F2
:1015B00014F8013F203B02FA03F00842F7D12078EB
:1015C0002E2817D114F8010F45F004052A280ED053
:1015D0006FF02F022078A0F1300109290AD809EB19
:1015E000890102EB410100EB0109641CF2E757F8A5
:1015F000049B641C20786C280DD004DC4C2812D08D
:101600006A2811D104E074280DD07A280CD10AE0A0
:1016100045F4001507E0617845F48015814202D158
:10162000641C05F58015641C207869283ED006DC12
:101630000028B3D063280BD0642804D136E0732887
:1016400010D075285CD052460D999047761CA5E0C5
:1016500017F8040B8DF8000000208DF80100E84613
:10166000012003E057F8048B4FF0FF3069074FF07B
:10167000000501D40AE06D1C4D450DDA8542FADB08
:1016800018F805100029F6D106E06D1C8542FCDB38
:1016900018F805100029F8D12E4404E018F8010BC1
:1016A00052460D9990476D1EF8D277E000200A90BF
:1016B000C5F302504FF00A0B02280CD001CFC1171E
:1016C000021E71F100020CDA0023D0EB030063EB81
:1016D00001012D2208E0FF1D27F00707F7E80201AE
:1016E000EEE72A0504D52B228DF82420012203E001
:1016F000EA070FD02022F7E70DF12008089218E042
:1017000000200A90C5F302504FF00A0B022803D0C4
:1017100001CF00210022EFE7FF1D27F00707F7E8C0
:101720000201F7E75A460A9BFEF76EFD303208F8D1
:10173000012D50EA0102F5D1ADEB080000F1200BBC
:10174000680701D44FF00109D94502DDA9EB0B0070
:1017500000E000208146002506E009A85246405DD1
:101760000D9990476D1C761C08988542F5DB04E0C6
:10177000302052460D999047761CB9F10001A9F12D
:101780000109F5DC05E018F8010B52460D99904768
:10179000761CBBF10001ABF1010BF4DC641CFAE632
:1017A00009280100000000000000000001020304FD
:1017B000060708090000000001020304E017000802
:1017C000000000201800000058150008F817000855
:1017D00018000020A80400006815000800000000A0
:1017E00000000000010000001000000000000000E8
:0817F0000024F40000000000D9
:04000005080000ED02
:00000001FF
